:020000040000FA
:0600000002139702084BF9
:03002B000210E5DB
:03003300020F8138
:0300530002077A27
:100083000207DC01010000000000F8FF07FFFF008A
:10009300000504000000030001FFFFFFFF00141030
:1000A3002700000020FD000206FFFF1E0076010C62
:1000B300171217541D00000000000000000000008C
:1000C300000000000000000000000000000000002D
:1000D300000000000000000000000000000000FF1E
:1000E3000104010C0002010F88069F860204010C23
:1000F3000002000000011388010400005F140000E7
:1001030000E8030000FFFFB0140188130000E803B8
:10011300000064006400B801A0BB0D00A0BB0D008B
:10012300020202070401051E02051E020A0A01015A
:1001330008080103B80B02803E0102FEFFE8030A30
:10014300050001FFFF020A011401E00100B0423B78
:10015300AAB83F0000003F8C906339AA0CA33A0071
:10016300941E3C8042633DCFFE753E1572313F00C5
:1001730000803FF304353F8096184B000080BF2278
:1001830092D43EDD9B2A3F04000040FFFF7F7FFFA8
:10019300FF7FFF010080341872313F050301010F17
:1001A3000300030003000300030003000300030034
:1001B300030005000A00140028004F009E00000001
:1001C300902F00000000642E00000000FF000000DC
:1001D300FF001213C560461213E3603DE96870081F
:1001E300F618F618F618F622748067F71202090952
:1001F3000909748067F7221213E3601D1213C57097
:1002030005191919801A121272701F121286C370FF
:1002130003E6673319191940071818182208080844
:1002230074FFF618F618F618F622121286601712E3
:100233001463702192F01214517019501720F014A6
:10024300080808090909E7F61819E7F61819E7F67F
:100253001819E7F62212145160E6E869701F0808BE
:10026300E62480F608E436F618547FB47F0CE6548F
:10027300806007F6E418F618F622181822E9C6CCAF
:1002830008C6CD08C6CE08C6CFC0E0E8C0E0EAC0C5
:10029300E0EBC0E009E9F809E7FA09E7FBE6F9183A
:1002A300E6F8C3EC98ED99EE9AEBC2E7F5F0EFC2EE
:1002B300E795F0500E600CEBCFFBEACEFAE9CDF9EF
:1002C300E8CCF8EAA2E7D2E7FAEB33FB13F5F0EE5A
:1002D300A2E7D2E7FEEF33FFC5F013A2E730E60152
:1002E300B313C5F0C3C0E0C0F07F00C39BFB605EE7
:1002F3009418600F401D14601AD0E023F9D0E0F881
:100303000203DB8AF0E9486003D2F0E4AFF0FAF9C4
:10031300F8803BEB30E40D89F0EA6003D2F0E4AF00
:10032300F0F9CAF8EB30E30D88F0EF6002D2F0AFDA
:10033300F0E4CAC9F8EB54076014FBC3EA13FAE903
:1003430013F9E813F8EF135002D2E0FFDBEDD0E02E
:10035300C0E030E739C3E49FFFF5F0EC98FC42F0CE
:10036300ED99FD42F0EE9AFE42F0D0E0F9D0E0F8CC
:10037300E5F0607AE923F9EE20E742D8028067C30B
:10038300EF33FFEC33FCED33FDEE33FE80EAEC2874
:10039300FCED39FDEE3AFED0E023F9D0E0F840025F
:1003A300801BC3EE13FEED13FDEC13FCEF135002A1
:1003B300D2E0FF08B800067F7F74FF802EEF335032
:1003C300178CF020F00260100CBC000C0DBD00086F
:1003D3000EBE000408E860DFE933E813FFEE2313E1
:1003E300FE4F4D4C8008E95480FFE4FEFDFCEE33E4
:1003F300EF33F47004FCFD7E80D0E0FBD0E0FAD054
:10040300E0F8D0E0CFC618CEC618CDC618CCC6F9D2
:10041300221213E37004181818221213C5700D74F6
:10042300FFF61819F61819F61819F622E75480661C
:10043300F6121451700F12146370F014F608F608D4
:10044300F608F680D1121463700CF608F60876806D
:1004530008E6447F80EC121289700C12127560BF9B
:10046300E65480F6E480BB121275700519191980E1
:10047300A5E869700C763F18768018F618F6E8F947
:1004830022E6CDC0E018ECC0E0E633CD33CDD31384
:10049300F6E719FCE7191933CC33C3947F400ECD2B
:1004A3009D502408E65480F6E418F6800FF4043DCA
:1004B30014501408E6447FF6187680E418F618F60C
:1004C300D0E0FCD0E0FD22CCD313CCFD18E4C6CBA6
:1004D300C0E018E4C6CAC0E00808ED08C633E61356
:1004E300F618E433C675F003C3CA97CA09CB97CB92
:1004F300199C40047D08802EBD00030205BD16B67D
:10050300FF050606081618C3CA33CACB33CB33CA52
:1005130027CA09CB37CB193CC37D08803E187D0819
:1005230020E75CC633C6CA33CACB33CB33DDF1D540
:10053300F0EB30E77BCA97CA09CB974ACB199C40AB
:100543006F4B7025E620E0218066187D08C3CA97AB
:10055300CA09CB97CB199CD3C633C6CA33CACB338C
:10056300CB3350C9DDE7D5F0E1D3E4C636C608C6C0
:1005730036C608C636C608C636C61818188031C32C
:10058300CA97CA09CB97CB199CB34097C633C6CA3F
:1005930033CACB33CB33DD34D5F02EC6A2E0C6400D
:1005A300C8CA27CA09CB37194A70BECB3CB480B935
:1005B3000808E63308E633601F181818D0E0FAD0AD
:1005C300E0FBD0E0FCD0E0FD22187D08CA27CA0971
:1005D300CB37CB193CD3808013F618E4B67F11F6E2
:1005E30018B6FF0EF618C60470D20808768080CAC3
:1005F300F618F618F680C5001213E3604F1213C500
:100603006012E7548066F61212727011121463704E
:100613003B090909F4F618F618F618F622121286A1
:10062300701512145108080860EAE6447FF618763C
:100633008018E4F618F6221214516016121463702F
:1006430012E4F608F608F608E65480F609090918D4
:10065300181822EAC0E0EBC0E0ECC0E0EDC0E0E631
:1006630087F0A4FBACF008E687F0A42CFCE435F09B
:10067300FA1809E687F0A42C4B60027401CA35F01E
:10068300FCE433FB09E687F0D2F7A42CCB35F0FC6E
:100693001908E687F0A42BCC35F0FBE433FD0819E9
:1006A300E687F0D2E7A42C4ACB35F0CD3400FC0921
:1006B300E687F0D2E7A42DCC35F0FDE433FA091830
:1006C300E687F0D2F7A42CCD35F0CA3400FC08E657
:1006D30087F0D2E7D2F7A42ACC35F07A7E20E70B55
:1006E3000ACB33CBCD33CDCC33CC33CB3350147097
:1006F30004ED30E00ED2F1E4CD3DCDCC3CCC3B500B
:1007030005DA05C2F1EB547FC63308E63392F0FBFA
:10071300E73309E733C39A502D2B70190C0D4C4D59
:1007230070151806E608C333700D20F10AA2F01302
:10073300F6E418800B4024E4F630F002768018F6D5
:1007430018F618F68024D33B14501074FFA2F0134C
:10075300F6187680E418F618F6800FA2F013F61850
:10076300E63303F618ECF618EDF6D0E0FDD0E0FC26
:10077300D0E0FBD0E0FA22C0E074F1120BE6A2AFA6
:10078300E433F509D2AF85A708AFA1EF5508FE748E
:10079300105E60061217F075A1EF74085E60081210
:1007A30017F675A1F78024EFA2E092F0E508A2E026
:1007B30082F05017906198E0F8900634E0C398A255
:1007C300D265D0335002E8F075A1FE752300E50928
:1007D300A2E092AF7F02020C45C0E074F2120BE676
:1007E300A2AFE433FED2AF9061A4E0F8759B00E5BD
:1007F3009158540860087591F71218448023E591C5
:1008030058541060087591EF12184A8014E591A2AC
:10081300E092F0E8A2E082F05007E0C2E0F01219A3
:10082300A09061A3E0F8E5E9585404600E1219762C
:1008330075E9FB906193E0A2E640F2752300EEA216
:10084300E092AF7F01020C45C0E074F2120BE6A206
:10085300AFE433FED2AF9061A5E0F8E5BF5854048E
:10086300600675BFFB1219B880D11208C230F0437D
:10087300120907803E8A088B098C0A8D0B780812AF
:1008830008C220F01430E72B74FFFCFBFA747F805E
:1008930022E4FCFBFA7480801AB48008BC00F2BB2B
:1008A30000EF800F50EBF9E4C39AFAE49BFBE49C5E
:1008B300FCE499C6CC18C6CB18C6CA18C6F922E4FC
:1008C300C9C608CAC608CBC6D3330308CCC63392FD
:1008D300F0C3947F402E94184019C9B90704CACBBA
:1008E300CC225025C309CA33CACB33CBCC33CC3348
:1008F300D9F422F4600DC9CCC313CB13CBCA13CAEA
:10090300D9F6CC22E4FCFBFA2214FCFBFA22C3E462
:1009130098F8E499F91209528026C3E49AFAE49B01
:10092300FBE920E7E9120952E498F8E499F922C3B4
:10093300E498F8E499F9120952E498F8E499F9C3B0
:10094300E49AFAE49BFB22EB20E7CFE920E7E0B946
:100953000010BB0008E88AF084F8AAF022E4FBC880
:10096300FA22EB70227B10C833C8C933C93350074E
:10097300C39AC3DBF280069A50012ADBEAC833F438
:10098300C8C933F4C9FA2275F008E4C833C8C933B7
:10099300C933C99AC99B5004C92AC93BD5F0ECFB9A
:1009A300C833F4C8E4C9FA22080808EAC0E0EBC077
:1009B300E086F0E7A4FA180986F0E7A42AFA1809F2
:1009C30086F0E7A42AFA180986F0E7A42AFA19861A
:1009D300F0E7A4FBE5F02AFA190886F0E7A42BFB5D
:1009E300E5F03AFA190886F0E7A42BFBE5F03AFAAA
:1009F30018180986F0E7A4C5F02BFBE43AFA1908A6
:100A0300E7C5F0C6A426F6E5F03BFBE43AFA188600
:100A1300F0E7A4F6E5F00826F6E43B08F6E43A0826
:100A2300F6D0E0FBD0E0FA22080808E630E711121E
:100A3300124A120A43080808C64480C61818182226
:100A4300181818E9799EC608CAC608CBC608CCC6CA
:100A5300C370207996CACBCC7019798ECBCC701326
:100A63007986CC700EF9802ACA33CACB33CBCC3308
:100A7300CC331930E7F2CCCBCA3350147004EA30CC
:100A8300E00DE4CA3ACACB3BCBCC3CCC500209C301
:100A9300E913C6CC182313C6CB18C6CA18C6F92245
:100AA300E4CFC0E0E4CEC0E0E4CDC0E0E4CCC0E0FD
:100AB30075F020E626F608E633F608E633F608E690
:100AC30033F6181818EC33FCED33FDEE33FEEF3339
:100AD300FFC3EC9709ED9709EE9709EF97191919D9
:100AE300400FFFEC97FC09ED97FD09EE97FE1919EE
:100AF30006D5F0BFECF709EDF709EEF709EFF719A3
:100B03001919D0E0FCD0E0FDD0E0FED0E0FF2225B3
:100B130021C582C0E0E52234FFC583C0E0E521C3DF
:100B2300958224F810AF0885832285822180088569
:100B33008322858221D2AFCEF0A3E520F0A37808EB
:100B4300E608F0A3DEFAEFF0A3E58124FAF8E6085D
:100B5300F0A3E608F0A3E608F0A30808E608F0A36C
:100B6300E608F0A315811581D0E0FED0E0F81581E9
:100B730015811581E8C0E0EEC0E02212143CB900F3
:100B830003020BD0E4900501784D79138002F0A3A2
:100B9300D8FCD9FA78239000867A01BA000280073C
:100BA300E493A3F608DAF97A4D7B17900087784F20
:100BB30079028015E493A3AD82AE838A828B83F09E
:100BC300A3AA82AB838D828E83D8E9D9E7758292FB
:100BD3007583F274041210C77582AC75832B74008D
:100BE3001210C7C0D02521C582C0E0E52234FFC55D
:100BF30083C0E0E521C3958224F310AF08858322E7
:100C03008582218008858322858221D2AFC8F0A303
:100C1300E9F0A3EAF0A3EBF0A37908E709F0A3D87E
:100C2300FAECF0A3EDF0A3EEF0A3EFF0A3D0E0F025
:100C3300A3D0E0F0A3D0E0F0A3E520F0A3E5F0F02B
:100C4300A322852283852182E0C0E0A3E0F9A3E00B
:100C5300FAA3E0FBA37808E0F608A3DFFAE0FCA31D
:100C6300E0FDA3E0FEA3E0FFA3E0C0E0A3E0C0E05B
:100C7300A3E0F5D0A3E0F520A3E0A3F5F010AF08BF
:100C83008583228582218008858322858221D2AFB4
:100C9300D082D083D0E0F8D0E03212124D18181869
:100CA300120AA312134619191922121346191919F4
:100CB300080808E618181820E7E0120AA312124DD4
:100CC30018181822090909E719191920E7DC080877
:100CD30008E618181820E703020AA312124D181881
:100CE30018120AA312124D181818121346191919BB
:100CF3002275F0108E248F258582298583288521EE
:100D030082852283E0CEA3E0CF852982852883EBE9
:100D1300C9EAC8EDCBECCAC3E833C8E933C9EA333F
:100D2300CAEB33CBC3EA9EF527EB9FF526B35004FA
:100D3300AB26AA27EC33CCED33CDD5F0DAAE24AF16
:100D430025221213E3601C1213C56017121451708D
:100D5300071214637001D322C0D01214637006D03B
:100D6300D0B322C32233D0D0501430E0F6C3E79679
:100D73000809E7960809E7960809E796B32220E0F1
:100D8300D5E6970809E6970809E6970809E697B3B1
:100D930022D083D082ECC0E0EDC0E0E493A3FCE476
:100DA30093A3FDED4C600D120EB8EC24FFFCED3463
:100DB300FFFD80EFE493A3FCE493A3FDED4C600DF2
:100DC300120FACEC24FFFCED34FFFD80EFD0E0FD0F
:100DD300D0E0FCE493A3C0E0E493C0E0221213E369
:100DE300601B1213C560161214517007121463604E
:100DF3000CB322C0D01214637005D0D022C32233A7
:100E0300D0D0501330E0EBC3E7960809E796080902
:100E1300E7960809E7962220E0E4E6970809E697B3
:100E23000809E6970809E69722D083D082E9C0E053
:100E3300E493A3C386F0C5F095F0F908E493A38681
:100E4300F0C5F095F0700BE493A3C3994005E90452
:100E53008002A3E475F002A42582F582E5F03583D0
:100E6300F583D0E0F9E493A3C0E0E493C0E02285E6
:100E73002283852182E0A3FEE0A3F5207808E0A386
:100E8300F608DFFAE0A3FFE0A3C0E0E0A3C0E0E0E0
:100E9300A3C0E0E0A3C0E0E0A3C0E010AF088582F8
:100EA300218583228008858221858322D2AFD08346
:100EB300D0820210CDC0E0C3E493960874019396E8
:100EC30018400FE493667008087401936618700065
:100ED3007019A3A3C3E49396087401939618A3A36C
:100EE300400DD0E0D0E0D0E0020DD0A3A3A3A3A394
:100EF300A3D0E0227404800474028000CCC0E0ED2F
:100F0300C0E0E521C39CCCAD2250011D10AF068C7F
:100F1300218D2280068C218D22D2AF121049D0E080
:100F2300FDD0E0FC2274028000CCC0E0EDC0E0E51F
:100F330021C39CCCAD2250011D10AF068C218D2204
:100F430080068C218D22D2AF121027D0E0FDD0E095
:100F5300FC221213E360251213C560201214517092
:100F630003021463080808E76670101819E766702F
:100F73000A1819E76670041819E76622F422C0E01C
:100F830074F2120BE6A2AFE433FED2AFE58BA2E01C
:100F93005005790412172A758B00C2E8752300EEF9
:100FA300A2E092AF7F01020C45C0E0C0F088F0E4FC
:100FB300936670080874019366187000A8F0A3A3E1
:100FC300700BD0F0D0E0D0E0D0E0020DD0A3A3D0DE
:100FD300F0D0E022D083D082CCC0E0E493A36006BB
:100FE30012106A1470FAE493A360061211CC147001
:100FF300FAD0E0FCE493A3C0E0E493C0E022C0088D
:10100300C3E096F50808A3E096420808A3E09642D9
:101013000808A3E0964208A2D265D033E508700120
:10102300D3D00822CAC0E0E493A3C582CCC582C54D
:1010330083CDC583F0A3C582CCC582C583CDC583CB
:10104300DAE5D0E0CA22CAC0E0E0A3C582CCC582FB
:10105300C583CDC583F0A3C582CCC582C583CDC569
:1010630083DAE6D0E0CA22C0E0E493A3D39C501015
:10107300E493A3C39C400AD0E0D0E0D0E0020FF495
:10108300A3A3A3D0E0227009080808226016181849
:1010930018C6C333C608C633C608C633C608C63324
:1010A300C6D5E0EA22C008C3E096F50808A3E09697
:1010B300420808A3E096420808A3E0964508700199
:1010C300D3D00822C09FF59FE473D09F22D083D052
:1010D30082C09FE493C0E0740193C0E0740293F56F
:1010E3009F22C0E0C0D0E8C0E0A8A8D2AFC2C775B5
:1010F3002300E8A2E792AFD0E0F8D0D0D0E03225C9
:1011030021F58210AF08F521400C15228008F52146
:1011130040021522D2AF8522832200C0D0252110A0
:10112300AF08F521500C05228008F5215002052255
:10113300D2AFD0D0227404800A7403800674028074
:10114300027401C0E0F404121102D0E01213FF2272
:10115300BB0102E722C082C08389828A83BB00036A
:10116300E08002E493D083D082226016080808C688
:10117300C313C618C613C618C613C618C613C6D5D6
:10118300E0EA22C3E0C696F608A3E0C696F608A3F3
:10119300E0C696F608A3E0C696F6222521F8E435C4
:1011A30022F9222521FAE43522FB222521FCE4350C
:1011B30022FD22252110AF08F521400C15228008BD
:1011C300F52140021522D2AF22C0E0E493A36C7054
:1011D30009D0E0D0E0D0E0020FF4A3A3D0E022C313
:1011E300E7960809E7960809E7960809E796A2D261
:1011F30065D03322C3E09608A3E09608A3E09608DF
:10120300A3E096A2D265D03322E76670100809E7FF
:1012130066700A0809E76670040809E76622E06653
:10122300701008A3E066700A08A3E066700408A3C0
:10123300E06622C3E096F008A3E096F008A3E096E8
:10124300F008A3E096F022181818E4C396F608E411
:1012530096F608E496F608E496F622C3E697F608AF
:1012630009E697F60809E697F60809E697F62218BD
:101273001818E60846087009E626087005E633F4F0
:10128300220822191919E70947097009E727097084
:1012930005E733F4220922C3E49396087401939675
:1012A3000874029396087403939622E026F008A329
:1012B300E036F008A3E036F008A3E036F02270042D
:1012C30022600D18C6C333C608C633C6D5E0F4186A
:1012D30022E657F60809E657F60809E657F608091D
:1012E300E657F622E627F60809E637F60809E63751
:1012F300F60809E637F622E026F608A3E036F608F4
:10130300A3E036F608A3E036F622E056F608A3E09B
:1013130056F608A3E056F608A3E056F622E647F68B
:101323000809E647F60809E647F60809E647F622FC
:10133300E056F008A3E056F008A3E056F008A3E057
:1013430056F022E4C397F709E497F709E497F709FE
:10135300E497F722600D08C6A2E713C618C613C6A2
:10136300D5E0F322C6F4C608C6F4C608C6F4C60818
:10137300C6F4C622C3E09608A3E09608A3E0960845
:10138300A3E09622C3E7960809E7960809E79608BB
:1013930009E7962275D00075813F752101752205F5
:1013A30000020B7E600C08C6C313C618C613C6D54D
:1013B300E0F422E6F008A3E6F008A3E6F008A3E6CB
:1013C300F022E7094709C3134709336002E733F4FF
:1013D30022E0F608A3E0F608A3E0F608A3E0F6226D
:1013E300E6084608C3134608336002E633F4228056
:1013F3000100E9F874FF28F90470F622CAC0E0E698
:10140300F0A308DAFAD0E0FA22E0F8A3E0F9A3E0C7
:10141300FAA3E0FB22E8F0A3E9F0A3EAF0A3EBF0E0
:1014230022EAF0A3EBF0A3ECF0A3EDF022E0FAA3A1
:10143300E0FBA3E0FCA3E0FD22E5C754F84401F57B
:10144300C77901222521F582E43522F58322E62698
:1014530018461846184622C2AF75D69F02000022CE
:10146300E727194719471947221210D04CD0021207
:1014730010D0AFD0021210D0F3D0021210D08DD101
:10148300021210D00BD2021210D03ED2021210D090
:101493004CD3021210D06CD3021210D0C0D302125C
:1014A30010D0A8D4021210D0AAD6021210D04CD752
:1014B300021210D09CD9021210D020DA021210D0DE
:1014C30025DD021210D059DF021210D091DF021273
:1014D30010D0F0E0021210D0FAE0021210D049E16D
:1014E300021210D01BE3021210D07AF4041210D0AF
:1014F300AEF4041210D001F5041210D004F6041255
:1015030010D0FDF1011210D079F2011210D0ACF21B
:10151300011210D0DAF2011210D018F3011210D018
:1015230053F5011210D072F5011210D0B7F5011264
:1015330010D04DF6011210D099F6011210D02DF7EC
:10154300011210D005F8011210D061F8011210D069
:10155300BFF8011210D03CF9011210D072F9011238
:1015630010D0BDF9011210D0E3F9011210D073FAB3
:10157300011210D00AFB011210D056FB011210D039
:1015830087FB011210D0BEFB011210D044FD0112E3
:1015930010D00EFE011210D0DEFE011210D0F3D4D3
:1015A300031210D082D5031210D0E8D5031210D045
:1015B3000DD7031210D097D7031210D01AD80312E5
:1015C30010D057D8031210D0E9D8031210D07CD909
:1015D300031210D04FDA031210D02CDC031210D0F8
:1015E3001ADD031210D0B5DD031210D00ADE031288
:1015F30010D07EDE031210D08AE1031210D0B4E3C0
:10160300031210D0B1E4031210D0EFE5031210D08F
:10161300FAE5031210D02AD0041210D056D00412C7
:1016230010D076D0041210D09DD0041210D0E4D183
:10163300041210D017D2041210D0D5D2041210D035
:101643006FD3041210D0C687051210D0CB870512B2
:1016530010D0FE87051210D05EF6041210D0ADF63E
:10166300041210D0FDF6041210D035F7041210D076
:101673003BF7041210D095E7041210D05CE8041273
:1016830010D06EE8041210D0E1E8041210D00683E3
:10169300051210D01783051210D0B583051210D090
:1016A300C083051210D0D883051210D0F6FF0112A3
:1016B30010D0E3FF011210D021FF021210D031FF2E
:1016C300021210D046FF021210D0FAFF021210D0FD
:1016D3000481051210D08781051210D0ED81051207
:1016E30010D034E5041210D052E5041210D07AE57C
:1016F300041210D09EE5041210D0C1E5041210D0DC
:10170300F9E5041210D021E6041210D05CE60412AD
:1017130010D00AE7041210D007FC041210D08EFC7C
:10172300041210D097FC041210D0BEFC041210D087
:1017330006FD041210D01DFD041210D0E3C80412DC
:1017430010D0F1C8041210D06AC9041210D042CAD2
:10175300041210D005CC041210D054CC041210D0B3
:1017630092CC041210D0F87F001210D088F004122B
:1017730010D0C0F0041210D00BF2041210D08FF26C
:10178300041210D00CB3041210D038B3041210D0CA
:101793007CB5041210D0BCB5041210D0FCB50412F1
:1017A30010D010B6041210D029B6041210D01BB7F3
:1017B300041210D0C0B7041210D0D4B7041210D042
:1017C30019F8041210D03DF8041210D056F8041280
:1017D30010D088F8041210D0B8F8041210D0E5F82D
:1017E300041210D0EFF8041210D051F9041210D0E3
:1017F30060F9041210D06AF9041210D077F90412B8
:1018030010D08FE2041210D0AFE2041210D0EEE237
:10181300041210D009E3041210D028E3041210D0EC
:101823008EE3041210D097E3041210D0F4E30412F1
:1018330010D003E4041210D027E4041210D0E8E41B
:10184300041210D0F5E4041210D006E5041210D0EF
:1018530063FF041210D0ABFF041210D0D7FF0412A1
:1018630010D05BAE041210D0B5AF041210D0C3AFCA
:10187300041210D0D6AF041210D0EBAF041210D064
:1018830000B0041210D013B0041210D087B00412A9
:1018930010D0ECB0041210D074B1041210D0F0B117
:1018A300041210D0B4B2041210D0C4B2041210D077
:1018B300D3B2041210D04185051210D065850512EC
:1018C30010D08D85051210D0B585051210D0F2E920
:1018D300041210D019EA041210D037EA041210D0FF
:1018E300AAEA041210D0BCDF041210D0D5DF041210
:1018F30010D0E1DF041210D0F5DF041210D013E092
:10190300041210D01DE0041210D027E0041210D0EE
:101913003AE0041210D0C0E0041210D035E10412F2
:1019230010D064E1041210D0B2E1041210D001E22D
:10193300041210D01CE2041210D026E2041210D0BC
:1019430037E2041210D07AE2041210D0B8860512DE
:1019530010D00387051210D094F6031210D0BEF6F0
:10196300031210D0DBF6031210D0EEF6031210D0E0
:1019730004F7031210D062F7031210D09AF7031280
:1019830010D08EFB031210D0D3FC031210D006FD2F
:10199300031210D069FD031210D0C9FE031210D038
:1019A300F1FE031210D006FF031210D016FF03122C
:1019B30010D05AFF031210D0B5FF031210D0C5FF89
:1019C300031210D0D7FA041210D0F1FA041210D077
:1019D30019FB041210D032FB041210D056FB041270
:1019E30010D074FB041210D08BFB041210D0B9FB7F
:1019F300041210D0D4FB041210D0E783051210D0C8
:101A03002B84051210D0A5CC041210D0B5CC04122F
:101A130010D0BACD041210D0ECCD041210D01CCECD
:101A2300041210D03FCE041210D056CE041210D0A0
:101A330090CE041210D0F5CE041210D037CF04127A
:101A430010D076CF041210D0A7CF041210D0D2CF6B
:101A5300041210D081F9041210D093F9041210D09B
:101A6300A7FA041210D0AAFA041210D000800512AB
:101A730010D03680051210D04C80051210D08E8005
:101A8300051210D09E80051210D0E280051210D0EE
:101A9300EC80051210D02EA7041210D071A70412E7
:101AA30010D0D6A7041210D0F3A7041210D095A813
:101AB300041210D09EA8041210D0E3A8041210D070
:101AC3000CA9041210D019A9041210D094A904125D
:101AD30010D01FAA041210D064AA041210D0AFAA07
:101AE300041210D014AB041210D037AB041210D070
:101AF300A8AB041210D0FDAB041210D038AC041202
:101B030010D06DAC041210D07FAC041210D091AC85
:101B1300041210D0B0AC041210D0B9AC041210D01F
:101B23006CAD041210D0AFAD041210D0EDAD0412A1
:101B330010D00F87051210D0B77E001210D043ECDF
:101B4300041210D079EC041210D0C1EC041210D09E
:101B53001AEE041210D060C1031210D079C203121E
:101B630010D0B3C2031210D061C4031210D08FC4BB
:101B7300031210D0F5C6031210D035C7031210D0CC
:101B8300D9C8031210D069C9031210D0BDC90312FA
:101B930010D05FCA031210D0A1CA031210D0E3CA37
:101BA300031210D040CC031210D08ECD031210D0EC
:101BB300C5CF031210D0F3CF031210D01AD00312E3
:101BC30010D023D0031210D07AD0031210D015D125
:101BD300031210D01DD4031210D0A4D4031210D0BA
:101BE3009984051210D0B184051210D0BB8405125C
:101BF30010D00F85051210D0E8B7041210D0FEB72D
:101C0300041210D09FB8041210D0DEB8041210D002
:101C1300FBB8041210D02CB9041210D079B90412F5
:101C230010D0ACB9041210D0E7B9041210D0E2BB43
:101C3300041210D04ABC041210D00682051210D030
:101C43006582051210D0A382051210D0E48205121A
:101C530010D04DFE041210D00BFF041210D0B9A502
:101C6300021210D0C5A5021210D027A6021210D05E
:101C730031A6021210D0C2A6021210D0FEA6021282
:101C830010D0F8A7021210D044A8021210D0D2A884
:101C9300021210D050A9021210D004AB021210D0BD
:101CA3002FAD021210D06DAE021210D0A9B00212E5
:101CB30010D00DB2021210D0C4B2021210D0B0B7BD
:101CC300021210D0A4B8021210D048B9021210D0D8
:101CD3006DB9021210D004BA021210D01ABA02124D
:101CE30010D091BA021210D0B0BA021210D0D9BAE1
:101CF300021210D06FBC021210D090BC021210D08E
:101D030036BD021210D07DBD021210D0EFBD0212FB
:101D130010D07DBE021210D0D9BE021210D04FBF18
:101D2300021210D0D0C0021210D029C3021210D058
:101D3300B0C3021210D0DAC3021210D0929F041261
:101D430010D0B0A0041210D0B9A1041210D070A307
:101D5300041210D0DEA4041210D000A5041210D077
:101D630008A7041210D0A1D3041210D05BD404121C
:101D730010D0C1D4041210D069D5041210D09CAC79
:101D8300031210D0CBAC031210D043AD031210D00A
:101D930046AE031210D0A2AE031210D019B0031234
:101DA30010D035B0031210D087B0031210D0CAB0D0
:101DB300031210D0DDB0031210D02FB1031210D0D4
:101DC300EAB1031210D064B2031210D08EB2031220
:101DD30010D0C6B2031210D042B4031210D01BB5F8
:101DE300031210D064B6031210D037B7031210D009
:101DF300BFB7031210D007B8031210D021B80312D3
:101E030010D068B8031210D088B8031210D01EB9CE
:101E1300031210D0A4B9031210D0FEB9031210D0CC
:101E230042BA031210D0D3BC031210D0F6BD031272
:101E330010D032BE031210D024BF031210D04CBFF7
:101E4300031210D04FBF031210D059BF031210D08A
:101E53006CBF031210D0EBBF031210D021C00312CA
:101E630010D04DC0031210D074C0031210D098C00C
:101E7300031210D009C1031210D017C1031210D0DE
:101E83004AC1031210D0DA85051210D0E685051277
:101E930010D01A86051210D0F9FF011210D08296C5
:101EA300031210D0A596031210D0EB97031210D093
:101EB3003498031210D09C98031210D0FA9803128E
:101EC30010D0FD98031210D04999031210D0BC9979
:101ED300031210D0449A031210D0479A031210D061
:101EE300D19A031210D0129B031210D0F59E031245
:101EF30010D08EA0031210D0ECA0031210D067A450
:101F0300031210D0A0A5031210D00FA7031210D0F4
:101F1300ADA7031210D0B8A8031210D0BD9E0412AF
:101F230010D039E6031210D0E3E6031210D049E7CC
:101F3300031210D062E7031210D0DEE7031210D0B1
:101F430091CF021210D084E8031210D0EBE80312F1
:101F530010D064EA031210D092EB031210D017ECE6
:101F6300031210D01DEE031210D0C6EE031210D0D0
:101F73006FEF031210D031F0031210D0DAF1031215
:101F830010D082F3031210D033F4031210D04BF5A8
:101F9300031210D0B0E4021210D024E5021210D0C4
:101FA3006CE5021210D0F8CD021210D0F9E502123E
:101FB30010D043E6021210D07BE6021210D0F9E6ED
:101FC300021210D053E7021210D0A7E8021210D069
:101FD30038E9021210D090E9021210D0AAE90212D5
:101FE30010D0D2E9021210D02AEA021210D099ECD2
:101FF300021210D0B8EC021210D09CED021210D0D5
:10200300CCEE021210D049EF021210D098EF021258
:1020130010D0F9EF021210D09FF0021210D06DF21F
:10202300021210D06DF3021210D0EBF4021210D092
:10203300CCF6021210D032F9021210D0E2FA0212D8
:1020430010D0B2FB021210D020FC021210D037FCC9
:10205300021210D02FFD021210D01FFE021210D058
:102063008AFE021210D005DA041210D051DB0412DA
:1020730010D00EDC041210D072DC041210D0DFD6A4
:10208300041210D0FAD6041210D03ED7041210D086
:1020930064D7041210D08AD7041210D0A2D7041226
:1020A30010D005D8041210D01AD8041210D03DD97C
:1020B300041210D046D9041210D04FD9041210D0F4
:1020C30058D9041210D062D9041210D057BC04128C
:1020D30010D056C0041210D05BC0041210D05DC0E3
:1020E300041210D007F3041210D0DAFF041210D038
:1020F300E6DC041210D02FFD041210D04F86051217
:1021030010D079EE041210D0B7FF011210D0F8C42A
:10211300041210D06787051210D07787051210D0EC
:10212300C4C0041210D00080021210D033800212F7
:1021330010D09F80021210D03A81021210D0D781A2
:10214300021210D01C82021210D03E82021210D052
:102153005782021210D07D82021210D09F82021287
:1021630010D0DD82021210D02183021210D04383DB
:10217300021210D0A583021210D06C84021210D068
:102183002385021210D09585021210D060860212A8
:1021930010D0B386021210D01987021210D05387C1
:1021A300021210D0A587021210D01388021210D089
:1021B3007E88021210D08188021210D00289021286
:1021C30010D09989021210D0198A021210D0388ABD
:1021D300021210D09C8B021210D0A98B021210D0C5
:1021E300B58C021210D0C28C021210D0CB8C02120A
:1021F30010D0A38E021210D0BD8F021210D03690D1
:10220300021210D0A890021210D0CA90021210D05D
:102213005E91021210D03293021210D0099702126B
:1022230010D01D97021210D02D97021210D037979D
:10223300021210D04097021210D04997021210D008
:102243005397021210D08097021210D0A99702124E
:1022530010D0B497021210D0D897021210D0FC9766
:10226300021210D06698021210D0AC98021210D04D
:10227300C998021210D04699021210D07D99021209
:1022830010D0BC99021210D0099A021210D08F9A62
:10229300021210D05D9C021210D0E09C021210D0EA
:1022A300C49D021210D02BA0021210D084A00212DF
:1022B30010D0CEA0021210D029A2021210D05EA21A
:1022C300021210D0B0A2021210D065A3021210D0D5
:1022D30014A4021210D051A4021210D0E6A40212C8
:1022E30010D052A5021210D0FA31001210D02C32A5
:1022F300001210D05A32001210D03034001210D015
:102303001035001210D06835001210D0A336001219
:1023130010D0EF36001210D0183A001210D00B3D37
:10232300001210D05B3E001210D0F13E001210D00C
:10233300FD3E001210D02F3F001210D0B240001209
:1023430010D06342001210D0F742001210D03A436B
:10235300001210D0B843001210D0D543001210D091
:102363000544001210D03A44001210D00A4500125E
:1023730010D0B345001210D03948001210D059497B
:10238300001210D0444A001210D0C64A001210D0D6
:10239300FA4E001210D0374F001210D08F4F001298
:1023A30010D0C24F001210D02C50001210D0625027
:1023B300001210D0ED50001210D04551001210D071
:1023C3001C52001210D0D552001210D070530012BC
:1023D30010D07856001210D09457001210D0375BEB
:1023E300001210D02B5C001210D02E5C001210D003
:1023F3005D5C001210D0635E001210D03C5F0012CF
:1024030010D07F5F001210D0D560001210D014617D
:10241300001210D09D61001210D0D161001210D0B3
:102423009662001210D0AE64001210D01F65001225
:1024330010D05F65001210D0ED65001210D00F6749
:10244300001210D0D167001210D0D869001210D03A
:10245300F069001210D0046A001210D03C6A001216
:1024630010D06A6A001210D0E96B001210D00E6D02
:10247300001210D06B6D001210D01D6E001210D020
:10248300446E001210D00B6F001210D0A36F001215
:1024930010D0C971001210D0FE71001210D06172F9
:1024A300001210D09073001210D03874001210D0A4
:1024B3006974001210D08174001210D010750012CC
:1024C30010D0C477001210D09C79001210D0B879C4
:1024D300001210D0D479001210D0A27A001210D0BA
:1024E300957E001210D01B88011210D04D88011266
:1024F30010D03C8C011210D0888C011210D0CE8CDD
:10250300011210D0708D011210D0CC8D011210D099
:10251300118E011210D0588F011210D06C9001123D
:1025230010D05B94011210D0DF94011210D0EC95FF
:10253300011210D04896011210D03898011210D011
:10254300AD98011210D0B798011210D0C49801129F
:1025530010D0EF98011210D0D699011210D0809AA2
:10256300011210D0FE9A011210D01E9B011210D03E
:10257300479B011210D0699B011210D0C99D011213
:1025830010D08F9E011210D0D49E011210D0519FF3
:10259300011210D002A0011210D034A0011210D0E9
:1025A3007AA0011210D0B6A0011210D006A1011218
:1025B30010D05AA1011210D0B0A1011210D0FCA169
:1025C300011210D069A2011210D0E4A2011210D09E
:1025D300AFA4011210D0AFA5011210D0D4A60112DE
:1025E30010D013AA011210D026AD011210D0E3AD02
:1025F300011210D027AE011210D0D7AF011210D0A4
:10260300EBAF011210D0F5AF011210D0FFAF0112E2
:1026130010D00BB0011210D027B0011210D0D2B0DD
:10262300011210D011B1011210D01BB1011210D040
:1026330025B1011210D095B1011210D0E0B10112F1
:1026430010D0F5B2011210D051B3011210D0D2B391
:10265300011210D091B4011210D09AB5011210D00A
:10266300CEB6011210D0BCB7011210D0D4B70112EC
:1026730010D02FB8011210D04DB8011210D095B858
:10268300011210D0BCB8011210D057B9011210D0EA
:102693001DBA011210D0AFBA011210D029BB01121A
:1026A30010D043BC011210D0F0BC011210D018BEE0
:1026B300011210D068BE011210D0CCBE011210D08E
:1026C3002EBF011210D05CBF011210D080BF0112C7
:1026D30010D0B5BF011210D0E6BF011210D019C03F
:1026E300011210D039C0011210D0A1C0011210D0B4
:1026F30095C1011210D0F0C1011210D019C20112FC
:1027030010D0A1C2011210D024C3011210D04FC3A4
:10271300011210D034C4011210D00080041210D062
:102723003880041210D05980041210D09B800412F8
:1027330010D0FD80041210D00781041210D017812D
:10274300041210D05281041210D03285041210D01A
:102753001F87041210D00589041210D09C8904121B
:1027630010D03E8A041210D036C6011210D0B4C65F
:10277300011210D010C7011210D05BC7011210D084
:1027830076C7011210D0A1C7011210D0BEC7011223
:1027930010D0CAC7011210D061C9011210D07AC972
:1027A300011210D0FFC9011210D012CA011210D0A9
:1027B30031CA011210D0D5CA011210D056CC011261
:1027C30010D009CE011210D09FCE011210D0A2CE8C
:1027D300011210D012CF011210D030CF011210D03D
:1027E300C7CF011210D00FD0011210D012D0011296
:1027F30010D0D8D0011210D045D1011210D06BD116
:10280300011210D0F6D1011210D014D2011210D03F
:102813005AD2011210D00ED3011210D058D3011284
:1028230010D087D3011210D0E4D3011210D019D4E1
:10283300011210D045D4011210D053D4011210D07C
:10284300A0D4011210D010D5011210D059D5011205
:1028530010D0A5D5011210D0D1D5011210D0DCD5DE
:10286300011210D0FAD5011210D0E5D6011210D002
:10287300EFD6011210D02AD7011210D03AD7011285
:1028830010D043D7011210D097D7011210D0ABD775
:10289300011210D0DAD8011210D0F1D8011210D0E1
:1028A30006D9011210D094D9011210D0D9D901122E
:1028B30010D065DA011210D070DA011210D0B2DB39
:1028C300011210D0CDDB011210D019DC011210D08F
:1028D30088DC011210D0C1DC011210D0DBDC011244
:1028E30010D01DDD011210D0EDDF011210D09AE0DF
:1028F300011210D007E1011210D047E3011210D0EA
:102903005FE3011210D062E3011210D06EE30112F3
:1029130010D082E3011210D08AE3011210D0BDE37C
:10292300011210D0BFE4011210D046E5011210D0FD
:10293300B6E5011210D038E6011210D0F9E6011203
:1029430010D018E7011210D0B9E7011210D016E821
:10295300011210D019E8011210D046E8011210D06C
:102963005BE8011210D0CFE8011210D01EEA011269
:1029730010D024EB011210D0AFEB011210D0CAEC2F
:10298300011210D092ED011210D0C3ED011210D03C
:10299300E6ED011210D0EFED011210D01EEE011280
:1029A30010D0AEEE011210D064EF011210D0D9EFA7
:1029B300011210D080F0011210D0F5F0011210D0E6
:1029C3002CF1011210D06AF1011210D0A0F1011202
:1029D30010D009CF021210D0269D041210D0689C8B
:1029E300041210D0CB9B041210D0C19B041210D040
:1029F3006B9B041210D0579B041210D0B69A04128A
:102A030010D0BA99041210D0E498041210D0ED96A5
:102A1300041210D04096041210D0D295041210D094
:102A2300BCCE021210D034E8031210D05296031217
:102A330010D04896031210D099CB021210D052C86E
:102A4300021210D0DD95031210D03194031210D06E
:102A5300EF93031210D00F93031210D0F9920312C5
:102A630010D0BA92031210D01592031210D00F8F08
:102A7300031210D0FD8C031210D0CA8C031210D095
:102A8300658C031210D0F88B031210D0B78B03128E
:102A930010D0F08A031210D08B8A031210D0368A1A
:102AA300031210D0D989031210D0B088031210D0AA
:102AB3004D88031210D09787031210D09287031208
:102AC30010D08687031210D03984031210D01384D8
:102AD300031210D093C7021210D0F0C6021210D006
:102AE300AFC6021210D090C6021210D05DC60212F9
:102AF30010D048C6021210D01DC6021210D0B883DF
:102B0300031210D06383031210D02483031210D056
:102B13001183031210D04C9F041210D006830312AA
:102B230010D0E282031210D0F180031210D0708013
:102B3300031210D08FCE021210D02C80031210D0AB
:102B4300B0E5021210D00080031210D07495041265
:102B530010D03695041210D00995041210D0D594D4
:102B6300041210D07494041210D05C94041210D088
:102B73003894041210D00191041210D0CD8E041297
:102B830010D0B48C041210D0438C041210D0F28BEA
:102B9300041210D0AC8B041210D0158B041210D079
:102BA300149F041210D009AB0300000080FB000047
:102BB30022E4738F0001001018870001000E1835FE
:102BC300000400D71725000200DB1726000200DDF2
:102BD3001727000200DF1728000100E91729000169
:102BE30000EA17840004003B15860001005B172AE6
:102BF300000100EB172B000100EC172C000100F083
:102C0300172D00080047152E000100F1172F0001B2
:102C130000F21730000100F31731000100F41732FE
:102C23000001004F1533000100501534000100F579
:102C33001736000100511538000100F6173900015D
:102C430000EF17830002000C18630001005D156498
:102C5300000100ED1765000100EE176D0001005E35
:102C630015710008003F15660001000B18430001B1
:102C730000FC1744000200FD1745000100FF174642
:102C83000002000018470008005515480001000223
:102C9300184B0001000318040001000F18A10001E4
:102CA3000013183700010012188800010011183CA6
:102CB30000010052153D000100F71749000200040E
:102CC30018670001005F154D00020006184E000151
:102CD3000008184F00020009183E000100FB1751BD
:102CE300000100531552000100F91753000100FAC7
:102CF30017540001005415000000000000000136C5
:102D03003601010001020100010301000104010673
:102D13000605020000070100340801000F09040141
:102D2300010D0100FF0E0800001702000019010049
:102D3300FF1A0100011B0100FE1C0100081D020017
:102D4300001F0100012001000121020000230100F6
:102D53000F240200002601000127010008280200B9
:102D6300FF2A0100072B0102402C0100002D010066
:102D7300012E0100012F0100FF30010B1D3108005E
:102D8300003A0100083B01000F3C0100013D010036
:102D9300FF3E04000042040000460400004A040011
:102DA300004E04000052040000560400005A0400C0
:102DB300000000010020011A880000020020011514
:102DC300880000030020011688000000002001197C
:102DD30088000004004201AB860000050042015F49
:102DE3008600000700300117880000FDFF21011154
:102DF300880000060042012F860000004042012F98
:102E030086010020002005631701002100200564CE
:102E13001701000002210565170004000021052F9A
:102E230014020400002905211403040000290523CA
:102E3300140304100029052514030414002805A80D
:102E430017050400002105271408040000210529A3
:102E5300140804000221052B14080401022105654E
:102E6300170103710301030103010301030103229A
:102E73000302030103100300030003000300030024
:102E830003000300034203000324030603000300BB
:102E93000304031203250323032503230304030469
:102EA30003000300030003440300030003230300A0
:102EB30003650321003503810300030503000300B9
:102EC300030003000325032303030271023001609F
:102ED3000211027002010202020202800210026168
:102EE300023A00410063027302720262024302006B
:102EF3000213023800000200020402120200020060
:102F0300020002000204020402370037003C0244BC
:102F1300020002390000020002650200023502814C
:102F23000200020502820283020002010171010113
:102F330001010111010101310101010101800110B0
:102F43000161013B001400630173017201620143DB
:102F5300010001130106013D0135000401120100C6
:102F63000100010001000104010401330133013CAC
:102F73000144013201360000010001650100013501
:102F83000081010001050182018301000103007139
:102F930000300160001100700031022003500480F2
:102FA30000100061000000140063007300720062EF
:102FB300004300000013000600000000000400129C
:102FC3000000000000000000000400040037003788
:102FD300003C024400000000000000000065000007
:102FE300003500810000000500000083000000366A
:102FF300000100060000000F0000000000000000B8
:10300300000000000003FFFF00000403FFFF0000B7
:10301300FFFF0FF4010005C4040320000100000BAF
:10302300000000000000000003010F00000000008A
:10303300000000000000000000000000000000008D
:1030430000000000000000000000000000181D3612
:103053001D1E1D7C1C00000000000000000000007D
:103063000000000000241D7C1C000000002A1D7CC1
:103073001C0000000000000000301D7C1C0000004C
:10308300000000000000000000000000000000003D
:10309300000000000000000000000000000000002D
:1030A30000000000000000000000004C1F01004C65
:1030B3001F0200C21E0280BC1E0300C81E0400CEF5
:1030C3001E0480D41E0500DA1E0600E61E3100F839
:1030D3001E3300FE1E3400041FFFFF000003000325
:1030E300000400080010001F003E007B00F600EC07
:1030F30001D703AF075D0FB91E713D000007ECFD5B
:10310300FDFDECDCDCCCBCACAC9C9C8C7C7C6C6CAA
:103113005C5C5C4C4C3C3C2C2C1C1C03EAF5E5D55C
:10312300D5C5B5A59595858575756565555545458C
:10313300353525251515050A5E250228250534256F
:10314300072E250C10250D1C25FF000000160F006F
:10315300000B150B020002220F3300000E0F5A69F9
:1031630067426565416C6C69616E63653039D0D1C6
:10317300D2D3D4D5D6D7D8D9DADBDCDDDEDF303015
:1031830016181920231A1C1E3000034D4C465118E3
:103193001A25050200011916181616182303003004
:1031A3003017181921301B1D1F30003C40423A3F95
:1031B3003F392F47300C0E020B040B0A0708000F90
:1031C3000204020101010109020204000029052D84
:1031D30014E803000000BE040A24000300E803010E
:1031E300000409100116031E1E030A0C0405082817
:1031F300020C050815FF0FC082C08312150290153B
:103203008A7400F0A37423F090158C7406F0A374F1
:1032130023F090158E740CF0A37423F09015907422
:1032230012F0A37423F0025F3574F7120B1290159A
:103233007EE4F0E990157DF07C557D157A7F7B1552
:10324300121C4C901802E0901587F0901588743F7B
:10325300F0A374150241C274F0120B12EAFEEBFFE5
:10326300548070030233CB90157D124257700302D2
:1032730033C4EA241B125AC2707CEA241F125AC2B6
:1032830064137002A3E0706E8A828B8312341990E8
:103293001598125054750A00750B00800D12409852
:1032A300127134121B50AA0EAB0FEA4B60488A828C
:1032B3008B83E0650C7004A3E0650D702C8A828B10
:1032C30083A3A3A3A3E0F50EA3E0F50FE50A450B43
:1032D3008A828B83A3A3A3A360C312439A850A8222
:1032E300850B83A3A3A3A380B78A0A8B0B8A828B44
:1032F3008312505080B4E508242A125AC2FCE50810
:103303002402F8E43509F9E8FAE9FB901598123537
:1033130000A3A3E06402703C8A828B831250548022
:103323000B88828983A3A3A3A312439AE849601F4E
:1033330088828983E06A7003A3E06B70E4888289E2
:1033430083A3A3E06C70DA901808125DF2806BEC33
:10335300F912233C850882850983E06401704FE5F7
:103363000824181234021211441266DC120EF7E517
:10337300082412123402121144E50812424B1211AE
:1033830040E508240B1266E0120EFBE50824171231
:1033930041E8E5082402FCE43509FDE5082419FAAF
:1033A300E43509FB122B82740A12111D800CE064B0
:1033B300027007AA08AB0912241AAA08AB09121A49
:1033C300BAEEFAEF6480802DEA5402600C9018671D
:1033D3007401F0EA6402FA8023EA5408601A1223A3
:1033E30036EA4B700B90159A1265B77A0812340FB0
:1033F300EE6408FAEFFB80047A007B00026D66F549
:1034030082E43509F583E0F50A780A22FB90157DFD
:10341300E0F9121C1C22A3A3E0F50CA3E0F50D2296
:103423007B0090157DE0F9121C1074042274F412D1
:103433000B128A088B098A828B83A3A3A3124E4C97
:103443001241F338F583E02409FA126CFE7003028B
:1034530034F38A828B837402124EC18508828509F4
:1034630083123500E8F0A3E91269788A828B83A37B
:10347300A3A3A3A3A3A3A3F0E5082403F8E43509B6
:103483001234F51241F33AF583E08E828B83A3A3C2
:10349300A3A3F0EE2409FAE43FFB8E828F83A3A358
:1034A3001260A4F5838882E0A2E58E828F83A3A3B2
:1034B300A3A3A3500474018001E4F0E5082403F5F9
:1034C300828983125054EA1255D53BF583126CC599
:1034D30012113C1241F23B1261968E828F83A3A399
:1034E300127E7412111DEEFAEFFB90157D126D4BD7
:1034F3008016F98882F583E0FAA3E0CA221251F11B
:10350300A3A322740212111D7F04020E7274F2121D
:103513000B128A088B09ECFAEDFB740E121447E0C8
:10352300FC1215388A0C8B0DAE0CAF0DEA4F6030D0
:10353300AC08AD09121526E96026AC08AD09EEFA10
:10354300EFFB12152CE970148E828F83124387FAD6
:10355300EFFB121520AA08AB09121550790080025F
:1035630079B402514074F0120B1274F61211B6EAD8
:10357300FEEBFF8C088D09750FB3852182852283AD
:10358300E4F0750E008002050E9031F0E493F8E547
:103593000EC398400302368FAA0E7B001215748A5D
:1035A3000A8B0BEA4B60E08A828B83A3A3123696C5
:1035B30028F0F8C3EE98EF940050CC7C157D007989
:1035C30000AA08AB09121AA2850A82850B83A3A35A
:1035D300A3A3127171E0F8EEC3982925E0F8E43350
:1035E300F9E50A28F582E50B39F583A3A3A3A3A381
:1035F300A31241FDA3125C198A0C8B0DAC0CAD0D0B
:10360300AA08AB09121C4C850A82850B83A3E064CC
:1036130001700A1266DC740112420F8044740112B5
:1036230011AE850A82850B8312505212155CE96034
:103633003D7409121447E0C0E01266DCD0E0F07478
:1036430009121447E06403701374011211AEE50804
:10365300240BFAE43509FB121C4C8012740112147A
:103663004712439AE508125BFF3509127132850A46
:1036730082850B831266E812420FA3A3E0C0E0E544
:103683000824141266E0D0E0F0750F00A90F740A45
:10369300026D63A3A3A3E0F8852182852283E02240
:1036A30074F7120B12E9FE8A828B83A3A3A3A3A34D
:1036B300A3E0540860338A828B83A3A3A3A3A3A3A9
:1036C300E0540260218A828B83A3A3A3A3A3A3A3B1
:1036D300A3A3E06406600F74E96E600A74CD6E60A4
:1036E3000574F06E700312231E024A3F74F0120B2E
:1036F3001274EF1211B6740F12144712649B7408FC
:10370300121447E9F0ECFEEDFF740512144712485A
:1037130007124A2BA3E0F912154474061214471238
:10372300649B740612144712566670030239AA1278
:103733004237E0FA7406121447E0F912225E123A95
:103743000AF8A3E0F9E84970030239AAEE2403F565
:103753000AE43FF50BEE2406F508E43FF5097C0087
:10376300850882F583125054850A82850B83E0F91C
:1037730012154A740312144712649B850A82850B3F
:1037830083E0C0E0852182852283123A03D0E012D0
:10379300577BF985218285228312409F1252CD12D5
:1037A3003699FAA3E0CA2407F582E43AF583E8F0F0
:1037B300A3E41264A62406F582E438F583E41271C7
:1037C3003E124E4012113CEE1241F33F12619674C9
:1037D30003121447124E4C2409127E6E12111D74EB
:1037E3002912144712716B1234FA12578E3A12715E
:1037F30032742B121447E0C0E085218285228312A4
:10380300562DD0E0F07402121447E4F0742512141C
:103813004778081213D40239017403121447126152
:103823005E8882F5831239F2A3A3A3125C24FB12F0
:103833001562850E82850F83A3EAF0A3EBF0740370
:10384300121447123A03A31239F2125E33A2E6505E
:103853000F850E82850F83A3A3A3A3A3E0D2E1F078
:103863007405121447E0706B850E82850F83A312D3
:10387300439A9015D8E0687003A3E0697055850EEC
:1038830082850F83A3A3A31241D2750C00780C1277
:10389300114478081211387429121447E0F50C7892
:1038A3000C1211447427121447120EFB9015E512E3
:1038B3000EFB7900741912144712502412246274F7
:1038C3000A12111D850E82850F83A3A3A3A3A3E070
:1038D3004405F07402121447E004FC8E828F8312B5
:1038E300504E8E828F83A3A3A3E0F912154A74036B
:1038F30012144712649B7402121447E004F0740319
:1039030012144712566660677402121447E0FA7481
:103913000612144712439AC3EA98E4995051740269
:10392300121447123CDC852182852283E028F8A308
:10393300E039F9E8240FF50EE439F50F850E82F529
:1039430083E4F074031214471239FD640160030227
:10395300381C74051214477401126D51F07403126C
:103963001447125F25123CFFE8F0A3E902384085B3
:10397300218285228312505412226485218285225A
:1039830083120EFB7426121447E0FD7425121447AC
:10399300E0FC740A121447E0F9EEFAEFFB12231865
:1039A300740212111D80438E828F83A3A3A3E0C0F0
:1039B300E0740C121447D0E0F0126BBAE0C0E0746C
:1039C3000D121447D0E0F0740612144712566670B5
:1039D30009740E12144774B98007740E12144774D5
:1039E30010F074091211A612245C7411026D63E0C5
:1039F300850E82850F83A3A3A322E0125753E022EF
:103A0300E0125753A3A322852182852283EAF0A3E0
:103A1300EB12566F2274F0120B1274E11211B6748A
:103A230004121447E9F07403121447ECF074021201
:103A33001447EDF08A0E8B0F742F12144712341BA8
:103A4300AA0CFB1222527401121447E9F0AA0CAB20
:103A53000D1222587401121447E07003023CD785FB
:103A63002182852283E480158E828F83A3A3A3A35F
:103A7300A3E0D2E3F0852182852283E004126CA9BE
:103A8300F8852182852283E0C3984003023CCE74EB
:103A930001121447E07003023CCE85218285228304
:103AA300123CDCE50C28F8E50D39F9E8240FFEE4B7
:103AB30039FF8E82F583A3A3A3A3A3E0A2E040B5BD
:103AC300750800750A08750B007402121447E0604C
:103AD300037508207C087D00790074051211A61275
:103AE3001AA28E828F83E0603E901628E0640170F4
:103AF3001AE508D2E3F508750B10123CEC121447D3
:103B0300E8F0A3E9125B1774FF807643080C750A8B
:103B13000C8E828F83A3123CF71271347405121436
:103B23004774FFF0A3805A7404121447E06009E558
:103B330008D2E6F508750A0A8E828F83A3E064FE35
:103B43007003A3E0F4703074121214477404126704
:103B530006F8741D121447E8124EC174121211A60E
:103B63001221807D007C0079007415121447AA820B
:103B7300AB83121F34800B123CEC121447E8F0A302
:103B8300E9F07407121447E508F012422EC0E074FE
:103B930009121447D0E0F0740A1214477401F07448
:103BA300051211A61224207411121447E0600302B7
:103BB3003CAC740D1214471257768E828F83A3A3E5
:103BC300A3A3F0740D121447124E8FE50AF0A3E578
:103BD3000BF07403121447E0C0E0124E20D0E01241
:103BE3005E336011901628E0C0E0740D1214471282
:103BF3004E6AD0E0F0740D12144712439A850C827A
:103C0300850D83A3A3A3A3A3123CE5241C126495EF
:103C130012714E123CE7125DE539126BD9C0E01206
:103C23004E07D0E0126C9EC0E0740D121447124987
:103C33004DD0E012699FC0E0740D1214471249433E
:103C4300D0E0F0740D121447123CF7123CE5242A1D
:103C5300126495850E82850F83A3A3A3A3A3A3A3B5
:103C6300A3E012648E12421DC0E012492FD0E0F08F
:103C7300740D121447125054850E82850F83126CF3
:103C8300B42428F582E43B127132124226126CC529
:103C930012113C12618FEA1264273B127E721211D9
:103CA3001D74051211A61224268E828F83A3A3A34B
:103CB300A3A3E0D2E0F07411121447E06003023AC8
:103CC3006B7401121447E014023A777900AA0CAB23
:103CD3000D122324741F026D63E075F007A4F8A985
:103CE300F022A3A3125058E8228E828F83A312439B
:103CF3009E740522E0123CFFA3A3A322F8A3E0F9DC
:103D0300850E82850F83A32274F0120B1274E812BE
:103D130011B6E9852182852283F08A0E8B0F8A8270
:103D23008B83A3A3A3A3A3A3A3A3E0F912227C8A57
:103D3300088B09EA4B7003023DE8E50E1255E912C0
:103D430042461241DD852182852283E06003023DE4
:103D5300EB7C04850E82850F83A3A3A3A3A3A3A354
:103D6300A3E0F9122282EE4F607B8E828F83A3A39E
:103D7300A3A312439A74071214471265CC12439AF1
:103D83007409121447124EF1C0E07411121447D093
:103D9300E012697DA3A3A3A3A3A3A312439A740F61
:103DA3001214471271347412121447E4126D59C875
:103DB300241FF582E438F58312615AC413135403A4
:103DC300FC70027C048E828F83E0F9780812114024
:103DD300742059FD744059F974031211A612231863
:103DE300740212111D026D617C08850E82850F839A
:103DF300A3A3A3A3A3A3A3A3E0F91222828B0BEA99
:103E03004B7003023D69EE4F60DB8521828522837F
:103E1300E0F50C780C121144850882850983A3A36D
:103E2300A3A3A3A3A3E0F50C780C1211448A828BFD
:103E330083A3A3A3E0FB8A82850B831279918A82F1
:103E4300850B83E0FA8E828F83A3A3E0F9122B887C
:103E5300740212111D023D6D74F7120B1274FA12E3
:103E630011B6E9FE780179017F00800379000F1212
:103E730051D0E0FCEFC39C5026EF75F007A4FC85FE
:103E8300F008AD08EA2CFCEB3DFD1247BFE0A2E0D1
:103E930050DA540C60D6E0A2E250D3780080CF8A87
:103EA300828B83A3A3A3A3A3A3E0703DE9A2E04075
:103EB3000574016E70338A828B83A3A3A3A3A3A388
:103EC30074011241AFE0C0E07403121447D0E01252
:103ED300481EE0C0E07404121447D0E0F0740512E9
:103EE3001447E81260F912245C7406024A3CC0824B
:103EF300C0837901122324025F3574F4120B12EA92
:103F03004B9018676019E4F08A088B09F50AF50BE2
:103F130078081211387A0212342312111D800A74A0
:103F230001F07A027B0012341002350B74F0120B8D
:103F33001274F31211B67403121447E4F0A3F09051
:103F430015981241DD7401121447E4F0A3124EC612
:103F530004F09015D2E0A2E350030240221241A3E1
:103F630074091214471214187409121447780812AA
:103F730013D490159A780812118674051214477891
:103F8300081213B61240A6740512144778081213C8
:103F93007750077A017B0002409374051214477827
:103FA3000C1213D4901807E0F509780C7908120A5B
:103FB300A3A80CA90D901808E0C398E4995003E056
:103FC3008001E8852182852283F0740912144778E1
:103FD300081213D4C008C009C00AC00B7405121418
:103FE30047780C1213D41240A6780C7908120AA34E
:103FF300E4F50AF50BD00FD00ED00DD00C780C7968
:104003000812125E90159A780C1213B680111240A2
:1040130098127134EEFAEFFB121B50AE08AF09EEA3
:104023004F60658E828F83123696C398502DEE248F
:1040330003F8E43FF9E0FA88828983E0C39AF060E9
:104043002374031214471245007401121447EEF04F
:10405300A3EF1265E7FEA3E0FF80C48E828F83A3E4
:10406300A3A3E4F08E828F83127E2B740112144774
:104073001256668E828F83A3A3A3A360911265C099
:1040830012144712409F808974031214471250542C
:10409300740D026D6312439E90159822126185A3DD
:1040A300A3A322901806127E33E4F50AF50B2274BB
:1040B300F0120B128A088B09890A7800790090158F
:1040C300981241DDFBEE4B601E088E828F83A3A303
:1040D300A3A312501E601008E87001098E828F831B
:1040E3001241D9EA4F70E3901809125054C3E89A69
:1040F300E99B40030241967A06124199A80CA90D47
:10410300EA4970030241968A828B83E508F0A3E5AE
:10411300091241B8E50AF09018081251D81241AFBC
:10412300A3E4F0A3F090159812501E600D8E828FB9
:1041330083A3A3A3A312713480179015981271342B
:104143009015D2E0A2E340091241A390159A1214EC
:10415300189015D2E0A2E3503A7A087B0090157DBF
:10416300E0F9121C22EA4B4C4D7028901806E0F53A
:1041730008A3E085080CF50DE4F50EF50F780C1295
:1041830011387A087B0090157DE0F9121C1674042F
:1041930012111D026D667B00121B4A8A0C8B0D22C5
:1041A300121C34EAF8EBF9ECFAEDFB221241B322CC
:1041B3001241B8A322F08A828B83A3A322E508F0DD
:1041C300024A3FF08E828F83A3A3A3A3A3A3221249
:1041D3005AD0A3A3F022A3A3A3A3E0FEA3E0FF224C
:1041E3007F05020E72F582E43509F583E0F922EAD0
:1041F3001241F7222410F582E422124205A3A3A35D
:10420300A3221243A2850882850983221242132224
:10421300F0850A82850B83A3A322E50E24111242A3
:1042230043E022E50E240E12424322E50E2410122F
:104233004243E02212423B22EE1241F73FF5832232
:10424300F582E4350FF58322240FF50AE43509F5E9
:104253000B780A22E0F9121ACC8A088B09EA4B225E
:1042630074F2120B12890B8A088B098A828B8312D0
:104273005054122348EA4B600479B8806A122354DD
:10428300E9F89031E6E493F9E8C399400479B28000
:10429300567A15124199AE0CAF0DEA4F700479109E
:1042A30080458A828B83E4F0A31241B8E50BF07555
:1042B3000A00780812113C7C127D00EA2403126C78
:1042C3007012111D90159E125666700890159E80EF
:1042D3000C12439A888289831242ED70F4EEF0A3A4
:1042E300EFF01223667900025140125058EA4B88CE
:1042F30082898322C082C08390159E80048C828D24
:1043030083127992EC4D60288C828D83A3A3E0699C
:10431300600574FF6970E68C828D83A3A3A3E06AB2
:104323007003A3E06B70D6EC2403FAE43DFB800436
:104333007A007B00025F3574F7120B12E9FD74FEFD
:104343006D70047C0180027C0090159E80096D7065
:10435300027C0188828983125666601F8882898362
:10436300A3A3A3E06A7003A3E06B70E7ECA2E08869
:10437300828983A3A3E050D6F9800279FE024A3FE3
:10438300EEF9800CA3A3127E33EE22740212111DE8
:104393007F02020E72F58312439E221243A222E091
:1043A300F8A3E0F9221243A28E828F832212111DF9
:1043B3007F03020E72C082C083790090159E800134
:1043C30009E0FAA3E08A82F583E582458370F1026E
:1043D3005F3574F6120B12E4F508F509780812112B
:1043E300409031E6E49375F013A4A9F01244F5125A
:1043F300719212111DE9FE74096E7003122360029B
:10440300438374F6120B1274FE1211B68521828552
:104413002283E4F0A3F0A821A92288088909780857
:104423001211407508027509007808121140126EC6
:104433000312111D02438E74F5120B1274EB121149
:10444300B6852182852283E4F0A3F090159E8074C3
:104453008E828F83A3A3E0C0E07402121447D0E0DE
:10446300125B17A982AA8389088A09750A0078084A
:1044730012113C7C127D00740612144712715712FC
:10448300111D740212119E880889097808121140BF
:104493007508137509007808121140740412144743
:1044A30012560975F013A4F8AAF075F013E9124433
:1044B300F1126E0B12111D85218285228312450094
:1044C3008E828F831241DDEE4F7085A821A9228849
:1044D30008890978081211407508027509007808DF
:1044E300121140126E0312111D74150243B0A42A57
:1044F300F9E82402FCE439FD7A427B0022E024013E
:10450300F0A3E03400F02274F4120B1274EB1211D6
:10451300B67E007F00A821A922880889097808129D
:1045230011407508028E0978081211407C007D0045
:104533007A4212719E12111DE9706C8E08805674B6
:104543000212119E880A890B780A121140750A1308
:10455300750B00780A121140E50875F013A4F8AA48
:10456300F075F013E5091244F11271A012111DE95F
:10457300701B7403121447AA82AB8374021214478C
:10458300E0F9122342E970050EEE70010F0508E50C
:10459300087002050985218285228312439AC3E5A7
:1045A3000898E509994098EEFAEFFB74150235086F
:1045B30074F6120B128C828D83A3A312480CF0EABB
:1045C30012642D3BF583E0C0E01247C9D0E0F0EA66
:1045D300241DF582E43B1243981247AD124807F0BD
:1045E300A3F0EA241FF582E43BF5831241DDEC12CC
:1045F30047A03DF583EEF0A3EFF01247A63BF5830A
:104603001247D7A3A3A3A3A3A3EEF0A3EF1260883B
:10461300FE8C828D8312481674035EFEC39403409E
:1046230003024793EE600874026E60030246B88C7F
:10463300828D83E0540CFE740C6E70030246F7E027
:10464300A2E4400D88828983E08C828D83A3124883
:104653002C74086E60030246F71247B77401F08AA0
:10466300828B83A3A3A3A3A3125ADD70148C828D20
:1046730083E0440C12481EA3A31247D7EEF0A3EF26
:10468300F08C828D83E0A2E4402B88821247E512EE
:1046930047FA500109F5821247E5A3A3A3A3A3A3F5
:1046A300F0A3EF1248268C828D83A3A3A3F0E82402
:1046B30003F850010988828983E0C0E0EC2411F5F6
:1046C30082E43DF583D0E01248168C828D83E0A20C
:1046D300E7507588828983E0FE8C828D8312482C93
:1046E30074FC5E700C8C828D83A3E05403640370AE
:1046F3001E0247931247B7E4F0740C6E6003024640
:104703006288821247EB1247FA5001090246848CF1
:10471300828D83A3E05403603288828983E0C0E002
:10472300EC1247D13DF583D0E012482D8C828D8366
:10473300E054036402701488828983E0C0E0124766
:10474300BFD0E012482D8003A3E4F0EC1255D53D11
:10475300127132EC2410FEE43DFFEA241DF582E4DD
:104763003BF583E0F5088E828F83E0C3982508F537
:1047730008F0EA2417F8E43BF98882F583E0C3954F
:1047830008C0E01247ADD0E0126088C39508500A14
:104793001247ADE4F01247C9E4F00243932415F540
:1047A30082E422EA240DF582E422EC240DF582E46E
:1047B3003DF58322EC12578E3DF58322EC2414F54C
:1047C30082E43DF58322EC1241F73DF58322241365
:1047D300F582E422E0FEA3E0FF8C828D83A3A3A3F2
:1047E300A3221247EBA3A3228983E0F508A3E0FFEA
:1047F300E5088C828D8322A3A3A3A3F0A3EFF0E8A3
:104803002402F82212480CA322E4F08C828D83A3A5
:10481300A3A322124834A882A983221241B3A3A3DB
:10482300A3A322124834A3E022A312483408A98385
:1048330022126091A32274F4120B1274F31211B6B4
:104843008A0A8B0BECFEEDFF8C82F583E0540CF5AA
:1048530008E0A2E75006E508D2E7F508E508D2E14B
:10486300F508125ADD7006E508D2E4F508E0A2E582
:104873005006E508D2E5F5087C087D007900AA21F9
:10488300AB22121AA27402121447E508127138C03F
:10489300E07403121447D0E0124EC6E50AF0A3E514
:1048A3000BF074051214471269A4121447E07077D1
:1048B3007408121447124E4C12607A381269BFC042
:1048C300E0740812144712494DD0E012699FC0E00A
:1048D3007408121447124943D0E0F07408121447C5
:1048E300124939E0124E74124EF512648EEE241101
:1048F300125AA9C0E012492FD0E0F0EE2414125A44
:10490300A9C0E07408121447124E4C2435F582E412
:1049130038F583D0E0124E99C0E0740812144712A0
:104923004E50D0E01266F8740D023508E82432F5D3
:1049330082E439F583221243A8A3A3A3A3A3A3224A
:10494300124E60126B9E38F58322124E602426F5B8
:1049530082E438F5832274F7120B127E008A828B6D
:1049630083A3A3A3A3A3A3A3A3A3E0640460030259
:104973004A1B125786E06003024A1B1255E83B129A
:1049830056647003024A1B88828983E054036003E0
:10499300024A1BE812578E39F583E0FA8C828D8325
:1049A300A3A3E0FBA3E0CB2411F582E43BF583E072
:1049B3006A706588828983A3A3A3A3A3A3A3A3A3E4
:1049C300124A1FE06A7003A3E06B704C88828983EC
:1049D300A3A3124A2BE0FFA3E0CF2406125AA96A2D
:1049E3007003A3E06B703188828983A3A3E0F88C02
:1049F300828D83A3A3E0F9A3E0F5838982A3A3E0D7
:104A03006860138C828D83A3A3A3E0F5838982E07E
:104A1300540C640470027E01EEF98020124A2322B2
:104A230012505C8C828D8322A3A3124A23A3A32258
:104A3300740C121447E0F9740D12111D7F01020E5C
:104A43007274F6120B1274FC1211B6EAFEEBFFEC51
:104A5300FAEDFB8C82F583A3E05403601690159462
:104A630012566660597900EEFCEFFD126285122B37
:104A7300B4804B852182852283EEF0A3EFF074028C
:104A8300121447124EBBAC21AD227A7E7B23122532
:104A9300A68A088B09A808A909EA4960218A828B9A
:104AA30083A3A3A3A3A3A3A3A3A37406F07A008859
:104AB300828B83124E4C12644EE0F9122504740467
:104AC30002439074F2120B1274F31211B6EAFEEB66
:104AD300FF8A82F583A3A3A3A3A3A3A3A3A3A3E012
:104AE300F50A901867E0700579BA024E047508015B
:104AF300750900750C00750D007C087D007900AA0E
:104B030021AB22121AA274051214477401124ECE5D
:104B1300540460127402121447E0D2E6124ECE54CB
:104B2300087003750803E05410600674404508F5E7
:104B330008E0540860227402121447E044C0124E85
:104B4300CE5420600A7403121447E0D2E080087444
:104B530003121447E0D2E1F0EE2415125AA9124EC3
:104B6300347003740169700674084508F5088E8271
:104B73008F83A3A3A3A3A3A3A3A3E070161226006A
:104B830085218285228312649B7402121447E0D22A
:104B9300E28030640F70107402121447124ED67400
:104BA300044508F508807F8E828F83A3A3A3A3A364
:104BB300A3A3A3E064028E828F83700A12716BE851
:104BC300F0A3E9F08060A3A3A3A3A3A3A3A3E0643A
:104BD30003700DAC21AD22EEFAEFFB1223B4804635
:104BE3008E828F83A3A3A3A3A3A3A3A3E0640170D3
:104BF30035901628E060107402121447124ED675D1
:104C03000910750AFF80187402121447E0440C124D
:104C13004EC674FDF0A374FFF074044508F5088EC6
:104C2300828F8312341BEE2415125AA9A2E0503F3F
:104C33007402121447E0540C701B8E828F8312503F
:104C430054122000E9700579BB024E047402121459
:104C530047E0D2E5F0EE2415125AA9A2E0501074F1
:104C630002121447E0540C64047004E0D2E5F0EE41
:104C73002411125AA9C0E07404121447D0E0126937
:104C8300A6121447E06003024DFD74081214471284
:104C93004E8FE508F0A3E509F0124E2AE0C0E012BA
:104CA3004E20D0E0F0124E11E0C0E0740812144719
:104CB300124E4C1247D138F583D0E0124EF5640101
:104CC3007011901628E0C0E07408121447124E6A5F
:104CD300D0E0F07408121447124E8A124E1BFAE801
:104CE300241CF582E439F583EA124EC1EE2415FA49
:104CF300E43FFB8A82F583127992E8125DE539F588
:104D030083124EBBEE241C125AA9C0E0124E07D0E8
:104D1300E0125F2B124E3470037401697013740830
:104D2300121447125776FAEE241D125AA9F91222C9
:104D3300888E828F83A3A3A3A3A3A3A3A3A3E0C06B
:104D4300E0740812144712494DD0E0F074081214AD
:104D530047124943E50AF07408121447125609240E
:104D630028F582E439F583E50CF0A3E50D124EA195
:104D7300124E74125B2212648EEE124E1BC0E0E8D8
:104D83002433F582E439F583D0E0F0EE241B125A84
:104D9300A9C0E07408121447124E50D0E0F0EE247C
:104DA3001A125AA9C0E07408121447124E4C243246
:104DB300F582E438F583D0E0124E99124E40121179
:104DC3003C126BA4127992740B121447124E4C24AA
:104DD3002F127E6E12111DEE2415125AA954406033
:104DE300129015B4125666600AAA21AB221262858C
:104DF300122BB4AA21AB22122426740C121447E0FE
:104E0300F902513BE82420F582E439F58322EE24AC
:104E130019F582E43FF58322126BB3E022E82412F2
:104E2300F582E439F58322EE2418F582E43FF58315
:104E3300225480F8A3E05401F974806822F508A392
:104E4300E0F509750A00780822124E6022124E60BE
:104E53002434F582E438F58322A3A3A3A3124E647A
:104E630022E0F8A3E0C822124E601247A038F5836F
:104E730022FAA3E0FBE8242AF582E439F583EAF079
:104E8300A3EB22A3A3A3A312439EEE2212560D1259
:104E930055ED39F58322F0EE2413125B2A22F0EE4E
:104EA300240D125B2A22E0FC8A828B83E02CFCA374
:104EB300E03400FD8A828B83ECF0A3EDF022F0A3B3
:104EC300E4F022F085218285228322F0EE2415125C
:104ED3005B2A22E0D2E3F0124EDE228E828F83120F
:104EE30043A2852182852283E8F0A3E9F022E8F03A
:104EF300A3E91265E1E02274F7120B128A828B8315
:104F0300A3E0640170047E6380027E648A828B83E3
:104F1300E060087905124F2E24F3FE9015D0E0606F
:104F230007F9124F2E24F2FE024A1B1224CEE9F88F
:104F3300EEC3982274F6120B1274FE1211B6852179
:104F43008285228312649BE9FEECFAEDFB9005C295
:104F53001256666032A821A92288088909780812A6
:104F630011407D01740E121447E0FCEEF99005C266
:104F730012646F122BB4740212111DEA4B60047990
:104F830000800679B2800279B602438E74F7120B61
:104F930012E9FE90158A125666601F7409121447AF
:104FA300E0F5087808121144EEF990158A12646F3F
:104FB300122BB4740112111D800279B6024A3F7498
:104FC300F7120B128908ECFEEDFF79B5E508245EB4
:104FD300602014600624F86034803D9005C41250AC
:104FE3001E60351271AF122BB48E828F8312649BB5
:104FF300802490158C127992EC4D601CEEFCEFFD31
:1050030090158C12646F122BB4E9F9800B901588FC
:10501300125024121C4C7900024A3F125058EA4B9A
:1050230022127996EEFAEFFB2274F7120B12E9FEC5
:1050330079B574AB6E700B901588125054121C4CDA
:105043007900024A3F8E828F83A3A3A3A3A3A3A3C2
:10505300A31250582212505C22E0FAA3E0FB227400
:10506300F1120B12EAFEEBFF8C0A8D0B750801900F
:1050730015D8E06E7003A3E06F700C12512FAA0ACB
:10508300AB0B121C4C805E122606EE6A7002EF6BAD
:105093007009AA0AAB0B12260C804AAC0AAD0BEEC0
:1050A300FAEFFB12215CE9F50890180EE070361256
:1050B3002ABCE97030E508702C9015A8E06E7003E7
:1050C300A3E06F7020EE4F601C750CA0750D157575
:1050D3000E00780C12113C7C087D00AA0AAB0B125F
:1050E300715B12111DA908027A8E74F2120B12EA77
:1050F300FEEBFF8C088D09750A0112512FEEFAEFB2
:10510300FB121C46E9640170119015D812439A856D
:105113000882850983127134800EAC08AD09EEFA5A
:10512300EFFB122162E9F50AA90A80111225FA8A16
:105133000C8B0DAC0CAD0D22740D12111D7F0602EC
:105143000E7274F6120B12EAFEEBFF7A0D7B00125D
:105153001B4AEA4B6062EE2424126E38F0EE2425DB
:10516300126E38A31251FD126E3EA3A3126BD1121D
:1051730051D8F0EE1251BE1251EDE8F0A3E91252EC
:10518300141251E5127134EE1251C7126C94A3A399
:10519300A3A3F0EE2433125AA9C0E01251D0D0E0F9
:1051A3001269C31251E5A3A3A3E8F0A3E912520CB9
:1051B300C0E0125786D0E0F0024393242AF582E43C
:1051C3003FF58322242EF582E43FF58322EA125B26
:1051D300FF3BF583221251DC22E08A828B83A3A357
:1051E300A322126CF3A3A3A3A3221251F12212430D
:1051F300A28A828B83A3A3A3A322F012520222EEDC
:105203002426F582E43FF58322F0EE2432125B2A52
:1052130022F0EE242C125B2A2274F4120B1274FE79
:105223001211B6ECFEEDFFEC2416125AA9640570B8
:1052330010EC2406FCE43FFD1223AEE97003025296
:10524300C8AC21AD22126EED122006852182852283
:1052530083125666606B8E828F83E064017058E818
:1052630075F009A4F8AAF075F009E9A42AF974FF06
:1052730028F8740239F9E8FAE9FB8882F58378089B
:105283001213D4EE12536A121377402785218285B5
:105293002283124E8A125AB71252CD78081213D4AF
:1052A30090871F78081212FA8A828B837808121368
:1052B300B6800A79A28010EE240F12712E79008035
:1052C3000679A1800279C8023506124EEBEE126B05
:1052D300BF2274F2120B128A0C8B0DECFEEDFFEC65
:1052E300125AB7E4F0A3F090875778081213D4EC5E
:1052F30012536A1212216067EC240E125AB07034F2
:1053030078B39015CFE07028901601E06401702007
:10531300EC2411125AA9F91224B68B09A909EE1229
:1053230055E93F126499EA4960047800800278A144
:105333008808802EE060046402700A1223C0E9F535
:10534300087007801DE064037010EEFCEFFDAA0CEB
:10535300AB0D12202AE9F50880087508A1800375B2
:1053630008A3A908025140126BBF78082274F012F7
:105373000B1274F51211B6EAFEEBFFEA240AFCE401
:105383003F8C82F583127E2F1255F374031211AEF4
:105393008A828B8312628FE970030254597401125B
:1053A30011AE74031211A6122006740112144712CF
:1053B30056667003025459E875F009A4F8AAF0750B
:1053C300F009E9A42AF974FB28FC740239FDE50805
:1053D300240E1266E0E4F00412144712439AE5081F
:1053E3001255E935091271328C828D8312140CE542
:1053F3000824121266E012141890871F78081213FB
:10540300D48C828D8378081212AE8C828D83780CB3
:105413001213D490871778081213D4780C790812D2
:105423000AA3E5084509450A450B702A74011214BD
:105433004712560975F009A4F8AAF075F009E9A412
:105443002AF9740328F582740339F5837401F07A19
:10545300007B081256168E828F83A3A3A3A3A3A354
:10546300A3A3A3A3E02406FCA3E03400FD8E828F54
:105473008312628F1269B1603EEE240A1255DB1269
:105483004E8F7468124EC1E81255D539F5837402F4
:10549300F09015BA12140C8C828D831264881260FA
:1054A3007A3CF58312141890871F78081213D4904E
:1054B30015BA78081212AE125651705D9015881203
:1054C3005601A3A3A3A3A3A3A3A3A3A31260B012F0
:1054D3001C46E9701012606E90158812608070058A
:1054E3001269B160348E828F83A3A3A3A3A3A3A362
:1054F300A3A3A3125601125054122030E960118E57
:10550300828F83A3A3A3A3A3A312563DE4F0A3F026
:105513008E828F83125623E4F01256516003025594
:10552300D08E828F83A3A3A3A3A3A3127E2B901554
:10553300CFE060030255C5901601E06401600302E9
:1055430055C5750A3A750B00780A12114074021298
:10555300119E880A890B780A12114012742A1211BB
:105563001DE9705BE508240E1266E0740112566BA8
:10557300C0E0E50824111266E0D0E0F0E508240F4E
:105583001266E0743A124EC19015B612140CE50877
:1055930024121266E012141890871F78081213D48D
:1055A3009015B678081212AE90871F78081213D49C
:1055B3009015B67808121221700812561280031241
:1055C30055F31256517006125F7174A1F0740B02F9
:1055D3006D63240EF582E422F8E43FF9E8FCE9FD6B
:1055E3008882F58322EA1255ED22240FF582E42204
:1055F300E5081255ED3509F583E4F0A3F02212799D
:10560300968E828F832212560D221243A2E8227AAB
:10561300007B0290145FE0F9121AF6228A828B83D0
:10562300A3A3A3A3A3A3A3A3A3A312563122124EFE
:1056330064240EF582E438F58322A3A3A3A31256B0
:105643004522124E64240FF582E438F583228E82BC
:105653008F83A3A3A3A3A3A3124E5C240FF582E419
:1056630038F58312560D492212566F22F085218296
:10567300852283E02274F6120B12EAFEEBFF7A23F3
:105683007B00121B4AEE240AF508E43FF50985085E
:10569300821264997C237D007900121AA285088204
:1056A3008509831256667003025739EEFAEFFB122F
:1056B30023CC12565160748E828F8312576C64010F
:1056C3008E828F83A3A3A3A3A3A37007125762742D
:1056D3000E802112566670101269B1700B8E828F84
:1056E30083A3A3E0A2E05007125758740D8005125C
:1056F300575874051269C354036401700712574065
:105703007405800B9015D0E0C0E0125740D0E01232
:10571300577BF5838882125AD685088285098312BE
:105723004E4C12642D38F583E9800E850882850975
:10573300831265128003126455F00243938E828FA5
:1057430083A3A3A3A3A3A3A3A3A3A312575222E0B8
:10575300126474A3228E828F83A3A3A3A3A3A31291
:105763004E5C12643338F58322A3A3A3A3A3A3A39C
:10577300A3A3A3125631E02212577F22126F02F81D
:10578300A3E022EA12578E3BF58322240CF582E430
:105793002274F1120B1274E41211B68A0C8B0D8C65
:1057A300088D097A237B00121B4A8A0A8B0BAE0AE7
:1057B300AF0BEA4F7003025A91126439E5082415BE
:1057C300125AC2687003A3E0698E828F83700474D7
:1057D3000280027401F0E508240DF8E43509F98824
:1057E30082F583E0FAC3E49AFA95E0FB125ABE2AE3
:1057F300FAA3E03BFB8E828F83A3A3A3A31260973C
:105803008E828F83A3A3F0EE2420F582E43FF583F9
:10581300E4F0EE2421F582E43FF583E4F0EEFAEFC1
:10582300FB122480850882850983125ADD70098E54
:10583300828F83A3740580069015D0125ACBF0EEA5
:105843002417F50AE43FF50B8E828F83125AD6E9AB
:10585300850A82850B83F0EE2416F8E43FF9E50808
:10586300240EFAE43509FB88828983124EA9E508E0
:105873002410FAE43509FB850A82850B83E0FC8852
:10588300828983E0F88A828B83E0C398C39CF812F1
:105893005B17F0EEFCEFFDAA0CAB0D1223C6E9F586
:1058A3000B8E828F83E06402700612606E125A9B25
:1058B300E50B6003025A88750C00750D0090180EF5
:1058C300E064016005E06402703F125AAD6008EEC7
:1058D3002421125AB070328E828F83A3A3A3126441
:1058E3005B125AE3EE2416125AA9125B0CFAE4393E
:1058F300FB12419BEA4B6011126CBD12113C125A10
:10590300F1AA0C12715B12111DEEFAEFFB12248C3B
:10591300E9F50B90180EE064016008E0640260038F
:10592300025A7BE97003025A7BE50C450D700302B2
:105933005A888003850E0B125AAD600BEE24211298
:105943005AB06003025A81850B0E850C08850D0938
:10595300750A00780812113C125AF18E828F83A3C4
:10596300A3A3A3127E7412111DEE2420125AA96060
:105973000D125AB67468124EC1EE24208015EE241F
:1059830021125AA96015125AB67403F0A37401F0D8
:10599300EE2421F582E43FF583E4F0EEFAEFFB1207
:1059A300248CE9F50B70907C137D00790074091247
:1059B30011A6121AA2741A1214477401125B2264FC
:1059C300687002A3E0704F8E828F8312563DE064AD
:1059D3000560030259377C0879FF8E828F83A3A366
:1059E300A3A3E0242A1260B3121B2CE9700302590B
:1059F300377C087D0079FF74011211A6121AA27474
:105A0300011211AE7A007B0079AB1223A87419122C
:105A1300144774FC8015125AB6E064037004A3E0C3
:105A230064017008741912144774FFF0E4F508F563
:105A330009780812114074021211AE74131214473C
:105A4300AA82AB8312659812111D85218285228358
:105A5300E0602B740912119E8808890978081211D5
:105A63004075081375090078081211407C007D0009
:105A7300126E0B12111D8006E50C450D6007AA0C72
:105A8300AB0D121B50EEFAEFFB121B508003750B8C
:105A930010A90B741C027A8BEE2406FAE43FFB1266
:105AA3001C4C22EE240C125B2A22EE2420125B2AC9
:105AB300640122EE1255ED3FF58322E508240EF52D
:105AC30082E43509F583E022125AD0A322E08E82C4
:105AD3008F8322A3E0F91224CE22E054036401222F
:105AE300125AE722E0FAE82AF8E43400F9228E8217
:105AF3008F83A3A3A312645F125AE7EE2416125BEB
:105B03002A125B0CFCE439FD22FAE82AF8E439F99D
:105B1300E8240422125B1B221269D2A3A3A322F05E
:105B2300125B2722EE240FF582E43FF583E022790E
:105B3300010210CD74F4120B12EAFEEBFF8A82F518
